:020000040800F2
:10000000C03101205D0200081B030008F102000856
:1000100019030008ED020008E103000800000000D9
:100020000000000000000000000000009D0100082A
:10003000EF02000800000000F90100081D0300089D
:1000400077020008770200087702000877020008AC
:10005000770200087702000877020008770200089C
:10006000770200087702000877020008770200088C
:10007000770200087702000877020008770200087C
:10008000770200087702000877020008770200086C
:10009000770200087702000877020008770200085C
:1000A000770200087702000877020008770200084C
:1000B000770200087702000877020008770200083C
:1000C000770200087702000877020008770200082C
:1000D000770200087702000877020008770200081C
:1000E000770200087702000877020008770200080C
:1000F00077020008770200087702000877020008FC
:1001000077020008770200087702000877020008EB
:1001100077020008770200087702000877020008DB
:1001200077020008770200087702000877020008CB
:1001300077020008770200087702000877020008BB
:1001400077020008770200087702000877020008AB
:10015000770200087702000877020008770200089B
:10016000770200087702000877020008770200088B
:1001700077020008770200087702000800000000FC
:100180007702000877020008DFF80CD000F09CF836
:100190000048004719050008C03101202C4B1968A0
:1001A0000868B0E8F04F80F30988BFF36F8F4FF015
:1001B000000080F3118870470000000008480068C4
:1001C000006880F308884FF0000080F3148862B65E
:1001D00061B6BFF34F8FBFF36F8F00DF00BF00BF6B
:1001E00008ED00E0DFF80C00016841F470010160E7
:1001F000704700BF88ED00E0EFF30980BFF36F8F19
:10020000134B1A681EF0100F08BF20ED108A20E96A
:10021000F04F106009B44FF0500080F31188BFF325
:100220004F8FBFF36F8F00F0D3FF4FF0000080F3CC
:10023000118809BC19680868B0E8F04F1EF0100F6B
:1002400008BFB0EC108A80F30988BFF36F8F704746
:1002500004000020EFF30580704700000648804747
:1002600006480047FEE7FEE7FEE7FEE7FEE7FEE79B
:10027000FEE7FEE7FEE7FEE7C50300088901000888
:1002800040EA01039B0703D009E008C9121F08C018
:10029000042AFAD203E011F8013B00F8013B521E98
:1002A000F9D27047D2B201E000F8012B491EFBD20F
:1002B00070470022F6E710B513460A460446194671
:1002C000FFF7F0FF204610BD064C074D06E0E06842
:1002D00040F0010394E8070098471034AC42F6D38D
:1002E000FFF756FF181C0008381C0008FEE770478F
:1002F000FEE7000007490968C9070AD005498039A7
:100300000968C90705D04FF060410A68002AFCD08F
:1003100008707047800E00E0FEE7704710B550206F
:1003200080F31188BFF34F8FBFF36F8F01F0C6FAD0
:1003300018B104494FF080500860002080F3118804
:1003400010BD000004ED00E070B5194C2068194A9A
:1003500010F00C01184804D0184D042903D00829C6
:1003600003D002601BE0056019E01149091F0B680A
:10037000C3F380560B6803F03F0316B1B5FBF3F2ED
:1003800001E0B2FBF3F20B680968C3F388135A4328
:10039000C1F30141491C4900B2FBF1F10160216840
:1003A000074AC1F30311515C0268CA40026070BD84
:1003B000083802400024F4000000002040787D014D
:1003C000081C00080548016841F4700101600349F8
:1003D0004FF00060803908607047000088ED00E051
:1003E000FEE700000FB4054B10B503A9044A0298BC
:1003F00000F017F810BC5DF814FB0000F9040008C9
:100400008400002002E008C8121F08C1002AFAD1A7
:1004100070477047002001E001C1121F002AFBD184
:1004200070472DE9F84F99469246884605460027C1
:1004300006E025280AD051464A4690476D1C7F1C8D
:1004400028780028F5D13846BDE8F88F002315F844
:10045000011F18462E2915D115F8011F04232A293A
:100460000DD06FF02F022978A1F13004092C09D8A2
:1004700000EB800002EB400008446D1CF3E758F8E5
:10048000040B6D1C2A78002ADDD0632A07D0732A5A
:100490000FD0104651464A4690477F1C2AE018F874
:1004A000042B8DF8002000218DF801106E460121EB
:1004B00003E058F8046B4FF0FF315A074FF0000487
:1004C00001D409E0641C84420BDA8C42FADB325D11
:1004D000002AF7D105E0641C8C42FCDB305D00286B
:1004E000F9D1274404E016F8010B51464A469047DB
:1004F000641EF8D26D1CA3E7054A914202D0054A5A
:10050000914201D1FFF7F6BE4FF0FF307047000077
:1005100084000020880000201CB5FFF753FFFFF780
:1005200013FF0CA0FFF75EFF002501242B46F022ED
:1005300014A11648CDE9004501F080F90023F0220E
:1005400013A11548CDE9004501F078F900F000FE4F
:10055000FEE700004672656552544F532072756E77
:100560006E696E67206F6E2053544D3332463430BF
:100570003720446973636F7665727920426F6172C8
:10058000640A00005461736B2031000055100008AC
:100590005461736B20320000911000082DE9F04186
:1005A000184C0F460546E6682068001D00F030FC38
:1005B00038B9206890F82C100120884021698143C7
:1005C0002161681C07D137B12168BDE8F0410E48B0
:1005D000091D00F05ABC20683544B54245602168C9
:1005E00005D2E06BBDE8F041091D00F036BCA06B00
:1005F000091D00F032FCA06A854200D2A562BDE868
:10060000F081000004000020800100202DE9F0416D
:10061000054600F047FC2E4CA068401CA0602068F6
:100620002C4F10B1606940B32DE02560A06801280F
:1006300029D1002606EB860007EB800000F0FFFBC7
:10064000761C052EF6D32348643000F0F8FB2148D1
:10065000783000F0F4FB1F488C3000F0F0FB1D48B0
:10066000A03000F0ECFB1B48B43000F0E8FB194868
:100670006430A0631430E06305E02068E96AC06A72
:10068000884200D82560606A401C60622864E96A7C
:100690000120226988401043206101EB810007EBB3
:1006A0008000291D00F0F1FB00F01CFC60690028AF
:1006B0000CD02068E96AC06A884207D206494FF028
:1006C00080500860BFF34F8FBFF36F8FBDE8F0819C
:1006D00004000020CC00002004ED00E010B500F084
:1006E000E1FB0E4C2068A0B90D4800F0A8FB0C48B7
:1006F000143000F0A4FB0A48E060143020610022AE
:100700000C210A2000F022FE206010B105A100F0AB
:100710006BFCBDE8104000F0E5BB00004400002089
:1007200094010020546D72510000000030B4026C3E
:100730000B46002A0BD0C1681144C1608468A142F5
:1007400001D30168C16030BC1846FFF799BD30BCC9
:1007500070472DE9F041856B174604460026026C70
:1007600082B1C7B1E068FFF78BFDE168206C091A20
:10077000E1602268914202D2A168081AE060022F6B
:1007800016D017E02068A8B9A06801F003F9064662
:100790000020A0600EE06068FFF772FD216C6068C9
:1007A00008446060A168884204D32068606001E06A
:1007B00005B16D1E6D1CA5633046BDE8F08110B516
:1007C0000446006B00F0A2FB2046BDE8104000F09C
:1007D0009DBB000010484FF49631420706D0C01D63
:1007E0000D4920F00700411AC1F596310B4A00234C
:1007F0000144C2E900030839183A21F007011160E9
:100800004B600B600B1AC0E9001393604FF000407F
:100810005360506170470000BC0100207C00002044
:10082000154E164CA6F1A0074FF08058DFF85090F7
:1008300012E000BF00F036FBF068C568281D00F02C
:10084000E7FAA068401EA0606068401E606000F08B
:1008500049FB2846FFF7B3FF60680028EAD13868F3
:10086000012805D9C9F80080BFF34F8FBFF36F8F00
:1008700000F0E1FAF0E700006C0100200400002025
:1008800004ED00E02DE9F05F8846DDE90B941546A4
:10089000834691009A460A9EA522206BFFF702FD2F
:1008A0006FF00301206B01EB8501084420F007077E
:1008B000780707D0502080F31188BFF34F8FBFF324
:1008C0006F8FFEE70025B8F1000F0FD05FF000003A
:1008D000221818F8001082F8341018F8001011B11E
:1008E000401C0A28F4D384F83D5001E084F83450C9
:1008F000052E00D30426E662C4E91265201D00F02F
:10090000A9FA04F1180000F0A5FA2461C6F1050067
:100910006462A061256584F85450524659463846B1
:1009200000F060FA2060B9F1000F01D0C9F8004072
:10093000BDE8F09F30B5114900E011460A688242D7
:10094000FBD34B685C18844203D14068184448606C
:10095000084643681C18944209D1084C183C246886
:10096000A24209D052681A4442600A6812680260C2
:10097000814200D0086030BD0460F9E77C000020AF
:1009800070B5002441600B4D0061914206D8D11A28
:100990008269914206D2011D286907E09A4203D27A
:1009A000994201D3012403E0011DE86800F055FAE3
:1009B000204670BD4400002010B5044600F072FAD5
:1009C000A06B28B15FF0000400F08CFA204610BD47
:1009D0000124F9E730B587B0394D67E00498002865
:1009E00064DB069C606910B1201D00F011FA03A8B9
:1009F00000F0D6F8024604980A2857D2DFE800F043
:100A00000505052D334A05052D3394F8280040F0DF
:100A1000010084F828000599A069059B014420463F
:100A2000FFF7AEFF68B3216A2046884794F8280094
:100A300040073BD5002000900598A169002342188B
:100A40001946204601F0B0F8D8B9502080F311883B
:100A5000BFF34F8FBFF36F8FFEE714F8280F20F01E
:100A60000100207022E094F8280040F0010084F892
:100A700028000598A06128B1811813462046FFF789
:100A80007FFF13E0502080F31188BFF34F8FBFF337
:100A90006F8FFEE794F82800810703D4204600F00A
:100AA00035FA03E020F0010084F82800002204A9B0
:100AB000286800F0E9FD002890D107B030BD0000A3
:100AC000440000202DE9FC410F46054600F078FB6C
:100AD00001A800F065F80446019818B100F0DCFFA9
:100AE000BDE8FC81254EAFB130690068D0B3002766
:100AF000291B3A46306800F08BFA00F0CDFF002841
:100B0000EED11F494FF080500860BFF34F8FBFF305
:100B10006F8FE5E7A542EBD800F0BEFFF0682746EF
:100B2000C068C468201D00F073F994F828004107DC
:100B300019D5A0692B4641193A462046FFF720FFF8
:100B4000A8B100200346014600902A46204601F045
:100B50002BF860B9502080F31188BFF34F8FBFF39B
:100B60006F8FFEE707E020F0010084F82800216A7B
:100B700020468847B4E70127BAE700004400002078
:100B800004ED00E00548816B096821B1816BC968FB
:100B90000968816270474FF0FF31FAE704000020D6
:100BA00070B5054600F084FE064E0446B0688442E7
:100BB00003D200F009F8012000E000202860204660
:100BC000B46070BD44000020F8B5194D20E0C06845
:100BD000C4680668201D00F01BF9216A204688477A
:100BE00094F82800400713D5A0693044B04206D9D4
:100BF00024616060211DE86800F02FF908E0002002
:100C00000346014600903246204600F0CDFF38B141
:100C1000E86801680029DAD12969C5E90310F8BD3F
:100C2000502080F31188BFF34F8FBFF36F8FFEE723
:100C30004400002008484068401C4FF0500080F3FA
:100C4000118804D0BFF34F8FBFF36F8FFEE7BFF360
:100C50004F8FBFF36F8FFEE758000020074CE0680E
:100C6000016841B1C0680021D0F80000FFF72AFFF9
:100C7000FFF7B0FEF3E701210020F7E74400002072
:100C80002DE9F041044600F00DF994F9455004F1C6
:100C9000240609E0606A48B1304600F0C3FE08B19E
:100CA00000F01CFA6D1E6DB2002DF3DC4FF0FF3624
:100CB00084F8456000F016F900F0F4F894F9445017
:100CC00004F1100709E0206948B1384600F0AAFE97
:100CD00008B100F003FA6D1E6DB2002DF3DC84F84C
:100CE0004460BDE8F04100F0FDB800002DE9F0419E
:100CF0000546002700F064FA394E306808B9FFF75E
:100D000069FD7069054218D1F5B305F10804AC42DC
:100D100054D9600714D004F00700C0F10800204443
:100D2000A0420AD9044640070AD0502080F3118817
:100D3000BFF34F8FBFF36F8FFEE700F0ADFE40E0D3
:100D4000002CFAD070688442F7D825481830014644
:100D50000D6801E028460D466968A14202D2296863
:100D60000029F7D131688D42E7D007682968016012
:100D700068680837011B102910D92819420709D0C3
:100D8000502080F3118800E018E0BFF34F8FBFF3CD
:100D90006F8FFEE741606C60FFF7CCFD696870689B
:100DA000401A7060B268904200D2B060706901432E
:100DB0000020C5E90001F068401CF06000F06CFE06
:100DC0000FB900F039F8780707D0502080F3118868
:100DD000BFF34F8FBFF36F8FFEE73846BDE8F0815A
:100DE0006400002010B5031F4FF080741C601B1FAF
:100DF00021F001011960191F044B0B6014390A60BE
:100E0000091F6FF0020244380A6010BD350C00085B
:100E1000D0E9013201699A60D0E901235A604A6839
:100E2000824201D182684A60002202610868401E45
:100E30000860086870477047FEE7FEE7704700F1FA
:100E400008014FF0FF32C0E90112C16001610021C9
:100E50000160704700210161704730B50B685A1C72
:100E600002D000F1080202E0026904E02246546860
:100E700025689D42FAD953684B6099608A60516039
:100E800008610168491C016030BD42684A6093688E
:100E90008B6093685960916008610168491C01602A
:100EA00070470000502080F31188BFF34F8FBFF3CD
:100EB0006F8F0A494868401C486001280CD10848D7
:100EC000006810F0FF0F07D0502080F31188BFF3A7
:100ED0004F8FBFF36F8FFEE7704700005800002070
:100EE00004ED00E00849486828B1401E486001D17F
:100EF00080F311887047502080F31188BFF34F8F23
:100F0000BFF36F8FFEE700005800002070B5002887
:100F10002AD0164DA0F1080460686969084207D11B
:100F2000502080F31188BFF34F8FBFF36F8FFEE720
:100F300022683AB1502080F31188BFF34F8FBFF37E
:100F40006F8FFEE78843606000F03AF96068696877
:100F5000084468602046FFF7EDFC2869401C2861C2
:100F6000BDE8704000F098BD70BD00006400002036
:100F70004FF0E02000210161816105494FF47A7250
:100F80000968B1FBF2F1491E416107210161704717
:100F90000000002010B5FFF75DF9114910280ED3AD
:100FA00000F1E02090F8F0030A78904207D2502038
:100FB00080F31188BFF34F8FBFF36F8FFEE70948AF
:100FC0000068896800F4E060884207D9502080F307
:100FD0001188BFF34F8FBFF36F8FFEE710BD000086
:100FE000580000200CED00E010B5084B002200BFB7
:100FF00053F832401CB1521C082AF9D310BD43F8F3
:10100000321003EBC201486010BD00008C000020CC
:1010100070B515460E460446FFF744FF94F9441098
:101020000020491C01D184F8440094F94510491C62
:1010300001D184F84500FFF755FFA06B28B92A4677
:10104000314604F1240000F067F82046BDE8704006
:10105000FFF716BE08B50C4D06A4002621460BA0CE
:10106000FFF7C0F900960098401C0090A842FAD300
:10107000F4E700005461736B2031206973207275AE
:101080006E6E696E670A0000FFFF0F0025730A008D
:1010900008B50C4D06A4002621460BA0FFF7A2F9C7
:1010A00000960098401C0090A842FAD3F4E7000094
:1010B0005461736B20322069732072756E6E696E95
:1010C000670A0000FFFF0F0025730A0002490A6A41
:1010D0000260C96841607047040000200149012096
:1010E000C86170470400002010B50C4650B1094992
:1010F00009681831FFF7B1FE2046BDE81040012114
:10110000FFF74CBA502080F31188BFF34F8FBFF325
:101110006F8FFEE70400002070B514460D4668B1DD
:101120000A4909681831FFF7B0FE0CB14FF0FF35DE
:1011300021462846BDE87040FFF730BA502080F3C2
:101140001188BFF34F8FBFF36F8FFEE704000020BD
:101150007CB517480025CDE900502B46822215A109
:10116000164800F06BFB124C2C3C012803D100F018
:10117000F5FC012802D0401C11D00EE0502080F375
:101180001188BFF34F8FBFF36F8F4FF0FF30A06216
:1011900001206061E56000F05FF8206B7CBD5020AD
:1011A00080F31188BFF34F8FBFF36F8FFEE700000E
:1011B0003000002049444C45000000002108000890
:1011C0000248416B491C4163704700000400002045
:1011D00010B51F4C606B10B10120E06110BD002004
:1011E000E06120684FF0A531006B02688A4208D1A7
:1011F00042688A4205D182688A4202D1C068884228
:1012000004D0216820683431FFF717FE20691149A6
:10121000B0FA80F0C0F11F0000EB800051F82020F0
:101220006AB101EB800000F1080241684968416041
:10123000914201D149684160C868206010BD5020CA
:1012400080F31188BFF34F8FBFF36F8FFEE700006D
:1012500004000020CC0000201CB537480168374A44
:10126000914207D1502080F31188BFF34F8FBFF315
:101270006F8FFEE700683149491E884207D1502030
:1012800080F31188BFF34F8FBFF36F8FFEE72C49B8
:1012900008780190FF20087008788DF800009DF80C
:1012A00000009DF8002000F0F000904207D0502090
:1012B00080F31188BFF34F8FBFF36F8FFEE79DF868
:1012C0000000204C00F0500020700720A06005E0D6
:1012D0009DF8002052008DF80020401E9DF800204F
:1012E0001206F5D4A060032807D0502080F311889F
:1012F000BFF34F8FBFF36F8FFEE74FF44070A060D6
:10130000019808700C482030016841F470010160B8
:10131000016841F070410160FFF72AFE0020606023
:10132000FEF760FF0848016841F040410160FEF7A8
:1013300045FF00201CBD000000ED00E071C20F4120
:1013400000E400E05800002034EF00E02DE9F04117
:1013500017460E4605000ED005FB06F09EB1B0FB09
:10136000F6F1A9420FD0502080F31188BFF34F8FC0
:10137000BFF36F8FFEE7502080F31188BFF34F8FCC
:10138000BFF36F8FFEE700F15001814207D8502074
:1013900080F31188BFF34F8FBFF36F8FFEE70846CE
:1013A000FFF7A4FC04000CD004F150005EB12060F3
:1013B000C4E90F562046012100F008F8204684F8C1
:1013C0004C70BDE8F0812460F2E7000070B50D4676
:1013D000040025D0FFF766FDD4E90F20216802FB49
:1013E0000011A1600021A163216861600A46D4E96F
:1013F0000F01401E00FB0121E16021464FF0FF304C
:1014000001F8440F487004F110008DB1FFF717FD8B
:1014100004F12400FFF713FDFFF764FD012070BD08
:10142000502080F31188BFF34F8FBFF36F8FFEE71B
:1014300021690029F0D000F0F5FA0028ECD0044929
:101440004FF080500860BFF34F8FBFF36F8FE3E71B
:1014500004ED00E02DE9FF4782B01D468A464FF0BB
:101460000008040003D0BAF1000F08D011E05020AA
:1014700080F31188BFF34F8FBFF36F8FFEE7206CAF
:1014800038B1502080F31188BFF34F8FBFF36F8FB7
:10149000FEE7022D0AD1E06B012807D0502080F32F
:1014A0001188BFF34F8FBFF36F8FFEE700F0F2F9A3
:1014B0003F4F4FF000094FF0805648B9049838B1BB
:1014C000502080F31188BFF34F8FBFF36F8FFEE77B
:1014D000FFF7E8FCA06BE16B884207D3022D05D033
:1014E0000498D0B1B8F1000F1AD01EE02A46514638
:1014F0002046FFF72EF9616A19B104F1240000F0CB
:1015000091FA20B13E60BFF34F8FBFF36F8FFFF7AB
:10151000E9FC012006B0BDE8F087FFF7E3FC22E01C
:101520006846FFF7D3FD4FF00108FFF7DBFCFFF73C
:1015300047FEFFF7B7FC94F94400401C01D184F842
:10154000449094F94500401C01D184F84590FFF780
:10155000C9FC04A9684600F033F930B12046FFF712
:101560008FFB00F099FA0020D4E7FFF79BFCA06BFB
:10157000E16B884213D1FFF7B5FC04F11000049928
:10158000FFF7B2FD2046FFF77BFB00F085FA00284D
:101590009ED13E60BFF34F8FBFF36F8F98E7FFF789
:1015A000A1FC2046FFF76CFB00F076FA90E7000004
:1015B00004ED00E02DE9F0471F46904689460400FF
:1015C00003D0B9F1000F08D011E0502080F311884A
:1015D000BFF34F8FBFF36F8FFEE7206C38B1502001
:1015E00080F31188BFF34F8FBFF36F8FFEE7022F99
:1015F0000AD1E06B012807D0502080F31188BFF397
:101600004F8FBFF36F8FFEE7FFF7C4FC5020EFF35F
:10161000118680F31188BFF34F8FBFF36F8FA06BDC
:10162000E16B884206D3022F04D0002086F3118894
:10163000BDE8F08794F94550A06B3A4649462046EC
:10164000FFF787F8681C06D07F2D14D06D1C84F836
:1016500045500120EAE7606A0028FAD004F124002E
:1016600000F0E0F90028F4D0B8F1000FF1D001212A
:10167000C8F80010EDE7502080F31188BFF34F8FBA
:10168000BFF36F8FFEE700002DE9F747002683B018
:101690008A46040003D0BAF1000F08D011E05020B0
:1016A00080F31188BFF34F8FBFF36F8FFEE7206C7D
:1016B00038B1502080F31188BFF34F8FBFF36F8F85
:1016C000FEE700F0E7F8DFF8F4804FF000094FF094
:1016D000805748B9059838B1502080F31188BFF37E
:1016E0004F8FBFF36F8FFEE7FFF7DCFBA56BC5B134
:1016F00051462046FFF71AF86D1EA563206950B1C8
:1017000004F1100000F08EF928B1C8F80070BFF3A2
:101710004F8FBFF36F8FFFF7E5FB012006B0BDE8E9
:10172000F087059808B11EB106E0FFF7DBFB27E064
:101730006846FFF7CBFC0126FFF7D4FBFFF740FD1F
:10174000FFF7B0FB94F94400401C01D184F84490A9
:1017500094F94500401C01D184F84590FFF7C2FB85
:1017600005A9684600F02CF8002820460AD0FFF7AB
:1017700087FA00F091F92046FFF71EF90028B3D050
:101780000020CBE7FFF718F990B104F12400059988
:10179000FFF7AAFC2046FFF773FA00F07DF9002856
:1017A000A2D1C8F80070BFF34F8FBFF36F8F9BE7D4
:1017B0002046FFF765FA00F06FF995E704ED00E0C9
:1017C0002DE9F0410C46050014D0DCB1FFF76AFBAF
:1017D000194EF2686B682068D11A471C1AD02F681E
:1017E000D6F820C00026674516D0934214D80125AC
:1017F00026601BE0502080F31188BFF34F8FBFF3AA
:101800006F8FFEE7502080F31188BFF34F8FBFF337
:101810006F8FFEE7002509E0884205D9401A206055
:101820002846FFF753FCF5E701252660FFF75AFB32
:101830002846BDE8F0810000040000202DE9FF5F8C
:101840008346DDE90E87994616468A469000FFF7E3
:101850004DFA05001AD05820FFF748FA040012D0BC
:1018600025630021CDE90241CDE900874B46324690
:1018700051465846FFF706F82046FEF7C7FE0120FE
:1018800004B0BDE8F09F2846FFF740FB4FF0FF3063
:10189000F6E700000548416919B1406B18B1002016
:1018A00070470120704702207047000004000020AC
:1018B0000148C06870470000040000202DE9F04195
:1018C000324C0027606B38B1A069401CA061FFF763
:1018D000B5FA3846BDE8F081E668761CE66013D1BB
:1018E000A06B006838B1502080F31188BFF34F8F90
:1018F000BFF36F8FFEE7A06BE16BA163E063206A2B
:10190000401C2062FFF73EF9A06ADFF8848086421F
:1019100009D3A06B006890B1A06BC068C568686807
:1019200086420FD2A0622068C06A00EB800158F89E
:101930002100012800D90127A06900B321E04FF060
:10194000FF30EFE7281DFFF763FAA86A18B105F129
:101950001800FFF75DFAE96A012022698840104308
:10196000206101EB810108EB8100291DFFF78DFA51
:10197000E86A2168C96A8842CBD30127C9E7FFF723
:101980005DFAE0690028A4D00127A2E70400002046
:10199000CC00002070B504004FF000013CD01F4D7A
:1019A0002868844207D0502080F31188BFF34F8FFE
:1019B000BFF36F8FFEE7E06C38B1401EE064A36CAC
:1019C000E26A9A4228D040B126E0502080F3118884
:1019D000BFF34F8FBFF36F8FFEE7201DFFF718FA9D
:1019E000012130B994F82C002A6901FA00F08243F1
:1019F0002A61A06CE062C0F10500A061E06A2A697A
:101A0000814011432961064900EB800001EB800011
:101A1000211DFFF73AFA0121084670BD040000209D
:101A2000CC0000202DE9F041C068C468ACB104F1DD
:101A300018000746FFF7ECF9154D686B0126A0B1B9
:101A400039461448FFF721FAE06A2968C96A8842D2
:101A50001CD90120EE61BDE8F081502080F311888F
:101A6000BFF34F8FBFF36F8FFEE7201DFFF7D0F955
:101A7000E16A2A6906FA01F01043286101EB81004E
:101A800004498C3901EB8000211DDBE70020E2E7EF
:101A900004000020580100202DE9F0472C4D0024BF
:101AA0002746686B38B1FFF7FDF9686B401E686325
:101AB000686B40B146E0502080F31188BFF34F8F30
:101AC000BFF36F8FFEE7A968224E0120D1B3A6F1C4
:101AD0008C0980463068E8B1F068C46804F11800E9
:101AE000FFF796F9201DFFF793F9E06A2A6908FAD3
:101AF00000F11143296100EB800109EB8100211DF8
:101B0000FFF7C3F9E06A2968C96A8842E2D3C5F8D9
:101B10001C80DFE70CB1FFF735F8AC6944B14646ED
:101B2000FFF7CCFE00B1EE61641EF9D10020A86180
:101B3000E86938B10849012738070860BFF34F8FBB
:101B4000BFF36F8FFFF7CEF93846BDE8F08700008E
:101B5000040000205801002004ED00E01CB5FEF751
:101B6000BDFD0D48006868B10B490220091DCDE993
:101B7000000100234FF4827208A10A48FFF75EFEBD
:101B8000002807D1502080F31188BFF34F8FBFF397
:101B90006F8FFEE71CBD000044000020546D7220D2
:101BA000537663005D0C0008FEB51E461346020026
:101BB000089D4FF0000014D0124C2768002F0FD062
:101BC000CDE900130292062915DAFFF763FE022819
:101BD0004FF000030DD0002269462068FFF73AFC61
:101BE000FEBD502080F31188BFF34F8FBFF36F8F7E
:101BF000FEE72A46F0E70023324669463846FFF7FB
:101C0000D9FCFEBD440000200000000000000000E0
:101C10000102030406070809381C00080000002020
:101C20008C00000004040008C41C00088C00002084
:101C300034310100140400080024F4000000000006
:101C40000000000000000000000000000000000094
:101C50000000000000000000000000000000000084
:101C60000000000000000000000000000400000070
:101C70000000000000000000000000000000000064
:101C80000000000000000000000000000000000054
:101C900000000000AAAAAAAA00000000000000009C
:101CA0000000000000000000000000000000000034
:101CB0000000000000000000000000000000000024
:041CC0000000000020
:040000050800018965
:00000001FF
